{
  "contractName": "Product",
  "abi": [
    {
      "constant": true,
      "inputs": [
        {
          "internalType": "uint256",
          "name": "",
          "type": "uint256"
        }
      ],
      "name": "productItems",
      "outputs": [
        {
          "internalType": "uint256",
          "name": "productId",
          "type": "uint256"
        },
        {
          "internalType": "bytes32",
          "name": "productSN",
          "type": "bytes32"
        },
        {
          "internalType": "bytes32",
          "name": "productName",
          "type": "bytes32"
        },
        {
          "internalType": "bytes32",
          "name": "productBrand",
          "type": "bytes32"
        },
        {
          "internalType": "uint256",
          "name": "productPrice",
          "type": "uint256"
        },
        {
          "internalType": "bytes32",
          "name": "productStatus",
          "type": "bytes32"
        }
      ],
      "payable": false,
      "stateMutability": "view",
      "type": "function"
    },
    {
      "constant": true,
      "inputs": [
        {
          "internalType": "bytes32",
          "name": "",
          "type": "bytes32"
        }
      ],
      "name": "productMap",
      "outputs": [
        {
          "internalType": "uint256",
          "name": "",
          "type": "uint256"
        }
      ],
      "payable": false,
      "stateMutability": "view",
      "type": "function"
    },
    {
      "constant": true,
      "inputs": [
        {
          "internalType": "bytes32",
          "name": "",
          "type": "bytes32"
        }
      ],
      "name": "productsForSale",
      "outputs": [
        {
          "internalType": "bytes32",
          "name": "",
          "type": "bytes32"
        }
      ],
      "payable": false,
      "stateMutability": "view",
      "type": "function"
    },
    {
      "constant": true,
      "inputs": [
        {
          "internalType": "bytes32",
          "name": "",
          "type": "bytes32"
        }
      ],
      "name": "productsManufactured",
      "outputs": [
        {
          "internalType": "bytes32",
          "name": "",
          "type": "bytes32"
        }
      ],
      "payable": false,
      "stateMutability": "view",
      "type": "function"
    },
    {
      "constant": true,
      "inputs": [
        {
          "internalType": "bytes32",
          "name": "",
          "type": "bytes32"
        }
      ],
      "name": "productsSold",
      "outputs": [
        {
          "internalType": "bytes32",
          "name": "",
          "type": "bytes32"
        }
      ],
      "payable": false,
      "stateMutability": "view",
      "type": "function"
    },
    {
      "constant": true,
      "inputs": [
        {
          "internalType": "bytes32",
          "name": "",
          "type": "bytes32"
        },
        {
          "internalType": "uint256",
          "name": "",
          "type": "uint256"
        }
      ],
      "name": "productsWithConsumer",
      "outputs": [
        {
          "internalType": "bytes32",
          "name": "",
          "type": "bytes32"
        }
      ],
      "payable": false,
      "stateMutability": "view",
      "type": "function"
    },
    {
      "constant": true,
      "inputs": [
        {
          "internalType": "bytes32",
          "name": "",
          "type": "bytes32"
        },
        {
          "internalType": "uint256",
          "name": "",
          "type": "uint256"
        }
      ],
      "name": "productsWithSeller",
      "outputs": [
        {
          "internalType": "bytes32",
          "name": "",
          "type": "bytes32"
        }
      ],
      "payable": false,
      "stateMutability": "view",
      "type": "function"
    },
    {
      "constant": true,
      "inputs": [
        {
          "internalType": "uint256",
          "name": "",
          "type": "uint256"
        }
      ],
      "name": "sellers",
      "outputs": [
        {
          "internalType": "uint256",
          "name": "sellerId",
          "type": "uint256"
        },
        {
          "internalType": "bytes32",
          "name": "sellerName",
          "type": "bytes32"
        },
        {
          "internalType": "bytes32",
          "name": "sellerBrand",
          "type": "bytes32"
        },
        {
          "internalType": "bytes32",
          "name": "sellerCode",
          "type": "bytes32"
        },
        {
          "internalType": "uint256",
          "name": "sellerNum",
          "type": "uint256"
        },
        {
          "internalType": "bytes32",
          "name": "sellerManager",
          "type": "bytes32"
        },
        {
          "internalType": "bytes32",
          "name": "sellerAddress",
          "type": "bytes32"
        }
      ],
      "payable": false,
      "stateMutability": "view",
      "type": "function"
    },
    {
      "constant": true,
      "inputs": [
        {
          "internalType": "bytes32",
          "name": "",
          "type": "bytes32"
        },
        {
          "internalType": "uint256",
          "name": "",
          "type": "uint256"
        }
      ],
      "name": "sellersWithManufacturer",
      "outputs": [
        {
          "internalType": "bytes32",
          "name": "",
          "type": "bytes32"
        }
      ],
      "payable": false,
      "stateMutability": "view",
      "type": "function"
    },
    {
      "constant": false,
      "inputs": [
        {
          "internalType": "bytes32",
          "name": "_manufacturerId",
          "type": "bytes32"
        },
        {
          "internalType": "bytes32",
          "name": "_sellerName",
          "type": "bytes32"
        },
        {
          "internalType": "bytes32",
          "name": "_sellerBrand",
          "type": "bytes32"
        },
        {
          "internalType": "bytes32",
          "name": "_sellerCode",
          "type": "bytes32"
        },
        {
          "internalType": "uint256",
          "name": "_sellerNum",
          "type": "uint256"
        },
        {
          "internalType": "bytes32",
          "name": "_sellerManager",
          "type": "bytes32"
        },
        {
          "internalType": "bytes32",
          "name": "_sellerAddress",
          "type": "bytes32"
        }
      ],
      "name": "addSeller",
      "outputs": [],
      "payable": false,
      "stateMutability": "nonpayable",
      "type": "function"
    },
    {
      "constant": true,
      "inputs": [],
      "name": "viewSellers",
      "outputs": [
        {
          "internalType": "uint256[]",
          "name": "",
          "type": "uint256[]"
        },
        {
          "internalType": "bytes32[]",
          "name": "",
          "type": "bytes32[]"
        },
        {
          "internalType": "bytes32[]",
          "name": "",
          "type": "bytes32[]"
        },
        {
          "internalType": "bytes32[]",
          "name": "",
          "type": "bytes32[]"
        },
        {
          "internalType": "uint256[]",
          "name": "",
          "type": "uint256[]"
        },
        {
          "internalType": "bytes32[]",
          "name": "",
          "type": "bytes32[]"
        },
        {
          "internalType": "bytes32[]",
          "name": "",
          "type": "bytes32[]"
        }
      ],
      "payable": false,
      "stateMutability": "view",
      "type": "function"
    },
    {
      "constant": false,
      "inputs": [
        {
          "internalType": "bytes32",
          "name": "_manufactuerID",
          "type": "bytes32"
        },
        {
          "internalType": "bytes32",
          "name": "_productName",
          "type": "bytes32"
        },
        {
          "internalType": "bytes32",
          "name": "_productSN",
          "type": "bytes32"
        },
        {
          "internalType": "bytes32",
          "name": "_productBrand",
          "type": "bytes32"
        },
        {
          "internalType": "uint256",
          "name": "_productPrice",
          "type": "uint256"
        }
      ],
      "name": "addProduct",
      "outputs": [],
      "payable": false,
      "stateMutability": "nonpayable",
      "type": "function"
    },
    {
      "constant": true,
      "inputs": [],
      "name": "viewProductItems",
      "outputs": [
        {
          "internalType": "uint256[]",
          "name": "",
          "type": "uint256[]"
        },
        {
          "internalType": "bytes32[]",
          "name": "",
          "type": "bytes32[]"
        },
        {
          "internalType": "bytes32[]",
          "name": "",
          "type": "bytes32[]"
        },
        {
          "internalType": "bytes32[]",
          "name": "",
          "type": "bytes32[]"
        },
        {
          "internalType": "uint256[]",
          "name": "",
          "type": "uint256[]"
        },
        {
          "internalType": "bytes32[]",
          "name": "",
          "type": "bytes32[]"
        }
      ],
      "payable": false,
      "stateMutability": "view",
      "type": "function"
    },
    {
      "constant": false,
      "inputs": [
        {
          "internalType": "bytes32",
          "name": "_productSN",
          "type": "bytes32"
        },
        {
          "internalType": "bytes32",
          "name": "_sellerCode",
          "type": "bytes32"
        }
      ],
      "name": "manufacturerSellProduct",
      "outputs": [],
      "payable": false,
      "stateMutability": "nonpayable",
      "type": "function"
    },
    {
      "constant": false,
      "inputs": [
        {
          "internalType": "bytes32",
          "name": "_productSN",
          "type": "bytes32"
        },
        {
          "internalType": "bytes32",
          "name": "_consumerCode",
          "type": "bytes32"
        }
      ],
      "name": "sellerSellProduct",
      "outputs": [],
      "payable": false,
      "stateMutability": "nonpayable",
      "type": "function"
    },
    {
      "constant": true,
      "inputs": [
        {
          "internalType": "bytes32",
          "name": "_sellerCode",
          "type": "bytes32"
        }
      ],
      "name": "queryProductsList",
      "outputs": [
        {
          "internalType": "uint256[]",
          "name": "",
          "type": "uint256[]"
        },
        {
          "internalType": "bytes32[]",
          "name": "",
          "type": "bytes32[]"
        },
        {
          "internalType": "bytes32[]",
          "name": "",
          "type": "bytes32[]"
        },
        {
          "internalType": "bytes32[]",
          "name": "",
          "type": "bytes32[]"
        },
        {
          "internalType": "uint256[]",
          "name": "",
          "type": "uint256[]"
        },
        {
          "internalType": "bytes32[]",
          "name": "",
          "type": "bytes32[]"
        }
      ],
      "payable": false,
      "stateMutability": "view",
      "type": "function"
    },
    {
      "constant": true,
      "inputs": [
        {
          "internalType": "bytes32",
          "name": "_manufacturerCode",
          "type": "bytes32"
        }
      ],
      "name": "querySellersList",
      "outputs": [
        {
          "internalType": "uint256[]",
          "name": "",
          "type": "uint256[]"
        },
        {
          "internalType": "bytes32[]",
          "name": "",
          "type": "bytes32[]"
        },
        {
          "internalType": "bytes32[]",
          "name": "",
          "type": "bytes32[]"
        },
        {
          "internalType": "bytes32[]",
          "name": "",
          "type": "bytes32[]"
        },
        {
          "internalType": "uint256[]",
          "name": "",
          "type": "uint256[]"
        },
        {
          "internalType": "bytes32[]",
          "name": "",
          "type": "bytes32[]"
        },
        {
          "internalType": "bytes32[]",
          "name": "",
          "type": "bytes32[]"
        }
      ],
      "payable": false,
      "stateMutability": "view",
      "type": "function"
    },
    {
      "constant": true,
      "inputs": [
        {
          "internalType": "bytes32",
          "name": "_consumerCode",
          "type": "bytes32"
        }
      ],
      "name": "getPurchaseHistory",
      "outputs": [
        {
          "internalType": "bytes32[]",
          "name": "",
          "type": "bytes32[]"
        },
        {
          "internalType": "bytes32[]",
          "name": "",
          "type": "bytes32[]"
        },
        {
          "internalType": "bytes32[]",
          "name": "",
          "type": "bytes32[]"
        }
      ],
      "payable": false,
      "stateMutability": "view",
      "type": "function"
    },
    {
      "constant": true,
      "inputs": [
        {
          "internalType": "bytes32",
          "name": "_productSN",
          "type": "bytes32"
        },
        {
          "internalType": "bytes32",
          "name": "_consumerCode",
          "type": "bytes32"
        }
      ],
      "name": "verifyProduct",
      "outputs": [
        {
          "internalType": "bool",
          "name": "",
          "type": "bool"
        }
      ],
      "payable": false,
      "stateMutability": "view",
      "type": "function"
    }
  ],
  "bytecode": "0x608060405234801561001057600080fd5b5061220e806100206000396000f3fe608060405234801561001057600080fd5b50600436106101215760003560e01c80639316bff0116100ad578063c20805b411610071578063c20805b414610cc9578063caaf275114610d0b578063cd4f6a2e14610d70578063cee26ed514610db2578063e262113f14610e1e57610121565b80639316bff014610a9a5780639cd777dd14610af05780639ea4695d14610b3c578063a090f47c14610c4f578063b0c7ad9414610c9157610121565b80631b3658c8116100f45780631b3658c814610771578063344b5d51146107db5780634b9930011461082b5780638577a7011461087757806392162bc4146108af57610121565b8063032f95e614610126578063100b6ba214610335578063130aa81f146103775780631836bd4b146105aa575b600080fd5b61012e610e6a565b604051808060200180602001806020018060200180602001806020018060200188810388528f818151815260200191508051906020019060200280838360005b8381101561018957808201518184015260208101905061016e565b5050505090500188810387528e818151815260200191508051906020019060200280838360005b838110156101cb5780820151818401526020810190506101b0565b5050505090500188810386528d818151815260200191508051906020019060200280838360005b8381101561020d5780820151818401526020810190506101f2565b5050505090500188810385528c818151815260200191508051906020019060200280838360005b8381101561024f578082015181840152602081019050610234565b5050505090500188810384528b818151815260200191508051906020019060200280838360005b83811015610291578082015181840152602081019050610276565b5050505090500188810383528a818151815260200191508051906020019060200280838360005b838110156102d35780820151818401526020810190506102b8565b50505050905001888103825289818151815260200191508051906020019060200280838360005b838110156103155780820151818401526020810190506102fa565b505050509050019e50505050505050505050505050505060405180910390f35b6103616004803603602081101561034b57600080fd5b810190808035906020019092919050505061117a565b6040518082815260200191505060405180910390f35b6103a36004803603602081101561038d57600080fd5b8101908080359060200190929190505050611192565b604051808060200180602001806020018060200180602001806020018060200188810388528f818151815260200191508051906020019060200280838360005b838110156103fe5780820151818401526020810190506103e3565b5050505090500188810387528e818151815260200191508051906020019060200280838360005b83811015610440578082015181840152602081019050610425565b5050505090500188810386528d818151815260200191508051906020019060200280838360005b83811015610482578082015181840152602081019050610467565b5050505090500188810385528c818151815260200191508051906020019060200280838360005b838110156104c45780820151818401526020810190506104a9565b5050505090500188810384528b818151815260200191508051906020019060200280838360005b838110156105065780820151818401526020810190506104eb565b5050505090500188810383528a818151815260200191508051906020019060200280838360005b8381101561054857808201518184015260208101905061052d565b50505050905001888103825289818151815260200191508051906020019060200280838360005b8381101561058a57808201518184015260208101905061056f565b505050509050019e50505050505050505050505050505060405180910390f35b6105b261156c565b6040518080602001806020018060200180602001806020018060200187810387528d818151815260200191508051906020019060200280838360005b838110156106095780820151818401526020810190506105ee565b5050505090500187810386528c818151815260200191508051906020019060200280838360005b8381101561064b578082015181840152602081019050610630565b5050505090500187810385528b818151815260200191508051906020019060200280838360005b8381101561068d578082015181840152602081019050610672565b5050505090500187810384528a818151815260200191508051906020019060200280838360005b838110156106cf5780820151818401526020810190506106b4565b50505050905001878103835289818151815260200191508051906020019060200280838360005b838110156107115780820151818401526020810190506106f6565b50505050905001878103825288818151815260200191508051906020019060200280838360005b83811015610753578082015181840152602081019050610738565b505050509050019c5050505050505050505050505060405180910390f35b6107d9600480360360e081101561078757600080fd5b8101908080359060200190929190803590602001909291908035906020019092919080359060200190929190803590602001909291908035906020019092919080359060200190929190505050611811565b005b610811600480360360408110156107f157600080fd5b8101908080359060200190929190803590602001909291905050506118fa565b604051808215151515815260200191505060405180910390f35b6108616004803603604081101561084157600080fd5b81019080803590602001909291908035906020019092919050505061192b565b6040518082815260200191505060405180910390f35b6108ad6004803603604081101561088d57600080fd5b810190808035906020019092919080359060200190929190505050611959565b005b6108db600480360360208110156108c557600080fd5b81019080803590602001909291905050506119b2565b6040518080602001806020018060200180602001806020018060200187810387528d818151815260200191508051906020019060200280838360005b83811015610932578082015181840152602081019050610917565b5050505090500187810386528c818151815260200191508051906020019060200280838360005b83811015610974578082015181840152602081019050610959565b5050505090500187810385528b818151815260200191508051906020019060200280838360005b838110156109b657808201518184015260208101905061099b565b5050505090500187810384528a818151815260200191508051906020019060200280838360005b838110156109f85780820151818401526020810190506109dd565b50505050905001878103835289818151815260200191508051906020019060200280838360005b83811015610a3a578082015181840152602081019050610a1f565b50505050905001878103825288818151815260200191508051906020019060200280838360005b83811015610a7c578082015181840152602081019050610a61565b505050509050019c5050505050505050505050505060405180910390f35b610aee600480360360a0811015610ab057600080fd5b810190808035906020019092919080359060200190929190803590602001909291908035906020019092919080359060200190929190505050611d1c565b005b610b2660048036036040811015610b0657600080fd5b810190808035906020019092919080359060200190929190505050611e0a565b6040518082815260200191505060405180910390f35b610b6860048036036020811015610b5257600080fd5b8101908080359060200190929190505050611e38565b60405180806020018060200180602001848103845287818151815260200191508051906020019060200280838360005b83811015610bb3578082015181840152602081019050610b98565b50505050905001848103835286818151815260200191508051906020019060200280838360005b83811015610bf5578082015181840152602081019050610bda565b50505050905001848103825285818151815260200191508051906020019060200280838360005b83811015610c37578082015181840152602081019050610c1c565b50505050905001965050505050505060405180910390f35b610c7b60048036036020811015610c6557600080fd5b8101908080359060200190929190505050611fba565b6040518082815260200191505060405180910390f35b610cc760048036036040811015610ca757600080fd5b810190808035906020019092919080359060200190929190505050611fd2565b005b610cf560048036036020811015610cdf57600080fd5b81019080803590602001909291905050506120fd565b6040518082815260200191505060405180910390f35b610d3760048036036020811015610d2157600080fd5b8101908080359060200190929190505050612115565b60405180878152602001868152602001858152602001848152602001838152602001828152602001965050505050505060405180910390f35b610d9c60048036036020811015610d8657600080fd5b8101908080359060200190929190505050612151565b6040518082815260200191505060405180910390f35b610dde60048036036020811015610dc857600080fd5b8101908080359060200190929190505050612169565b6040518088815260200187815260200186815260200185815260200184815260200183815260200182815260200197505050505050505060405180910390f35b610e5460048036036040811015610e3457600080fd5b8101908080359060200190929190803590602001909291905050506121ab565b6040518082815260200191505060405180910390f35b606080606080606080606080600054604051908082528060200260200182016040528015610ea75781602001602082028038833980820191505090505b5090506060600054604051908082528060200260200182016040528015610edd5781602001602082028038833980820191505090505b5090506060600054604051908082528060200260200182016040528015610f135781602001602082028038833980820191505090505b5090506060600054604051908082528060200260200182016040528015610f495781602001602082028038833980820191505090505b5090506060600054604051908082528060200260200182016040528015610f7f5781602001602082028038833980820191505090505b5090506060600054604051908082528060200260200182016040528015610fb55781602001602082028038833980820191505090505b5090506060600054604051908082528060200260200182016040528015610feb5781602001602082028038833980820191505090505b50905060008090505b60005481101561115457600260008281526020019081526020016000206000015488828151811061102157fe5b602002602001018181525050600260008281526020019081526020016000206001015487828151811061105057fe5b602002602001018181525050600260008281526020019081526020016000206002015486828151811061107f57fe5b60200260200101818152505060026000828152602001908152602001600020600301548582815181106110ae57fe5b60200260200101818152505060026000828152602001908152602001600020600401548482815181106110dd57fe5b602002602001018181525050600260008281526020019081526020016000206005015483828151811061110c57fe5b602002602001018181525050600260008281526020019081526020016000206006015482828151811061113b57fe5b6020026020010181815250508080600101915050610ff4565b50868686868686869d509d509d509d509d509d509d505050505050505090919293949596565b60046020528060005260406000206000915090505481565b606080606080606080606080600a60008a81526020019081526020016000208054806020026020016040519081016040528092919081815260200182805480156111fb57602002820191906000526020600020905b8154815260200190600101908083116111e7575b505050505090506000809050606060005460405190808252806020026020018201604052801561123a5781602001602082028038833980820191505090505b50905060606000546040519080825280602002602001820160405280156112705781602001602082028038833980820191505090505b50905060606000546040519080825280602002602001820160405280156112a65781602001602082028038833980820191505090505b50905060606000546040519080825280602002602001820160405280156112dc5781602001602082028038833980820191505090505b50905060606000546040519080825280602002602001820160405280156113125781602001602082028038833980820191505090505b50905060606000546040519080825280602002602001820160405280156113485781602001602082028038833980820191505090505b509050606060005460405190808252806020026020018201604052801561137e5781602001602082028038833980820191505090505b50905060008090505b6000548110156115425760008090505b8a51811015611534578a81815181106113ac57fe5b602002602001015160026000848152602001908152602001600020600301541415611527576002600083815260200190815260200160002060000154898b815181106113f457fe5b6020026020010181815250506002600083815260200190815260200160002060010154888b8151811061142357fe5b6020026020010181815250506002600083815260200190815260200160002060020154878b8151811061145257fe5b6020026020010181815250506002600083815260200190815260200160002060030154868b8151811061148157fe5b6020026020010181815250506002600083815260200190815260200160002060040154858b815181106114b057fe5b6020026020010181815250506002600083815260200190815260200160002060050154848b815181106114df57fe5b6020026020010181815250506002600083815260200190815260200160002060060154838b8151811061150e57fe5b60200260200101818152505089806001019a5050611534565b8080600101915050611397565b508080600101915050611387565b50868686868686869f509f509f509f509f509f509f50505050505050505050919395979092949650565b60608060608060608060606001546040519080825280602002602001820160405280156115a85781602001602082028038833980820191505090505b50905060606001546040519080825280602002602001820160405280156115de5781602001602082028038833980820191505090505b50905060606001546040519080825280602002602001820160405280156116145781602001602082028038833980820191505090505b509050606060015460405190808252806020026020018201604052801561164a5781602001602082028038833980820191505090505b50905060606001546040519080825280602002602001820160405280156116805781602001602082028038833980820191505090505b50905060606001546040519080825280602002602001820160405280156116b65781602001602082028038833980820191505090505b50905060008090505b6001548110156117f05760036000828152602001908152602001600020600001548782815181106116ec57fe5b602002602001018181525050600360008281526020019081526020016000206001015486828151811061171b57fe5b602002602001018181525050600360008281526020019081526020016000206002015485828151811061174a57fe5b602002602001018181525050600360008281526020019081526020016000206003015484828151811061177957fe5b60200260200101818152505060036000828152602001908152602001600020600401548382815181106117a857fe5b60200260200101818152505060036000828152602001908152602001600020600501548282815181106117d757fe5b60200260200101818152505080806001019150506116bf565b508585858585859b509b509b509b509b509b50505050505050909192939495565b6040518060e001604052806000548152602001878152602001868152602001858152602001848152602001838152602001828152506002600080548152602001908152602001600020600082015181600001556020820151816001015560408201518160020155606082015181600301556080820151816004015560a0820151816005015560c082015181600601559050506000808154809291906001019190505550600a600088815260200190815260200160002084908060018154018082558091505090600182039060005260206000200160009091929091909150555050505050505050565b600081600760008581526020019081526020016000205414156119205760019050611925565b600090505b92915050565b6008602052816000526040600020818154811061194457fe5b90600052602060002001600091509150505481565b600860008281526020019081526020016000208290806001815401808255809150509060018203906000526020600020016000909192909190915055508060066000848152602001908152602001600020819055505050565b606080606080606080606060086000898152602001908152602001600020805480602002602001604051908101604052809291908181526020018280548015611a1a57602002820191906000526020600020905b815481526020019060010190808311611a06575b5050505050905060008090506060600154604051908082528060200260200182016040528015611a595781602001602082028038833980820191505090505b5090506060600154604051908082528060200260200182016040528015611a8f5781602001602082028038833980820191505090505b5090506060600154604051908082528060200260200182016040528015611ac55781602001602082028038833980820191505090505b5090506060600154604051908082528060200260200182016040528015611afb5781602001602082028038833980820191505090505b5090506060600154604051908082528060200260200182016040528015611b315781602001602082028038833980820191505090505b5090506060600154604051908082528060200260200182016040528015611b675781602001602082028038833980820191505090505b50905060008090505b600154811015611cf85760008090505b8951811015611cea57898181518110611b9557fe5b602002602001015160036000848152602001908152602001600020600101541415611cdd576003600083815260200190815260200160002060000154888a81518110611bdd57fe5b6020026020010181815250506003600083815260200190815260200160002060010154878a81518110611c0c57fe5b6020026020010181815250506003600083815260200190815260200160002060020154868a81518110611c3b57fe5b6020026020010181815250506003600083815260200190815260200160002060030154858a81518110611c6a57fe5b6020026020010181815250506003600083815260200190815260200160002060040154848a81518110611c9957fe5b6020026020010181815250506003600083815260200190815260200160002060050154838a81518110611cc857fe5b60200260200101818152505088806001019950505b8080600101915050611b80565b508080600101915050611b70565b508585858585859d509d509d509d509d509d50505050505050505091939550919395565b6040518060c0016040528060015481526020018481526020018581526020018381526020018281526020017f417661696c61626c650000000000000000000000000000000000000000000000815250600360006001548152602001908152602001600020600082015181600001556020820151816001015560408201518160020155606082015181600301556080820151816004015560a0820151816005015590505060015460046000858152602001908152602001600020819055506001600081548092919060010191905055508460056000858152602001908152602001600020819055505050505050565b60096020528160005260406000208181548110611e2357fe5b90600052602060002001600091509150505481565b60608060608060096000868152602001908152602001600020805480602002602001604051908101604052809291908181526020018280548015611e9b57602002820191906000526020600020905b815481526020019060010190808311611e87575b5050505050905060608151604051908082528060200260200182016040528015611ed45781602001602082028038833980820191505090505b50905060608251604051908082528060200260200182016040528015611f095781602001602082028038833980820191505090505b50905060008090505b8351811015611fa65760066000858381518110611f2b57fe5b6020026020010151815260200190815260200160002054838281518110611f4e57fe5b60200260200101818152505060056000858381518110611f6a57fe5b6020026020010151815260200190815260200160002054828281518110611f8d57fe5b6020026020010181815250508080600101915050611f12565b508282829550955095505050509193909250565b60066020528060005260406000206000915090505481565b60008060008090506000600154111561202457600091505b600154821015612023578460036000848152602001908152602001600020600101541415612016578190505b8180600101925050611fea565b5b600360008281526020019081526020016000206005015492507f417661696c61626c6500000000000000000000000000000000000000000000008314156120f6577f4e410000000000000000000000000000000000000000000000000000000000006003600083815260200190815260200160002060050181905550600960008581526020019081526020016000208590806001815401808255809150509060018203906000526020600020016000909192909190915055508360076000878152602001908152602001600020819055505b5050505050565b60056020528060005260406000206000915090505481565b60036020528060005260406000206000915090508060000154908060010154908060020154908060030154908060040154908060050154905086565b60076020528060005260406000206000915090505481565b60026020528060005260406000206000915090508060000154908060010154908060020154908060030154908060040154908060050154908060060154905087565b600a60205281600052604060002081815481106121c457fe5b9060005260206000200160009150915050548156fea265627a7a72315820933a721a80dadf3d3461e3c815d5b0724f87fca7b2c8ee644810c1dc5dbb20f764736f6c63430005100032",
  "source": "// SPDX-License-Identifier: MIT\npragma solidity >=0.4.22 <0.9.0;\n\ncontract Product {\n\n    uint256 sellerCount;\n    uint256 productCount;\n\n    struct seller {\n        uint256 sellerId;\n        bytes32 sellerName;\n        bytes32 sellerBrand;\n        bytes32 sellerCode;\n        uint256 sellerNum;\n        bytes32 sellerManager;\n        bytes32 sellerAddress;\n    }\n    \n    mapping(uint=>seller) public sellers;\n\n    struct productItem {\n        uint256 productId;\n        bytes32 productSN;\n        bytes32 productName;\n        bytes32 productBrand;\n        uint256 productPrice;\n        bytes32 productStatus;\n    }\n\n    mapping(uint256=>productItem) public productItems;\n    mapping(bytes32=>uint256) public productMap;\n    mapping(bytes32=>bytes32) public productsManufactured;\n    mapping(bytes32=>bytes32) public productsForSale;\n    mapping(bytes32=>bytes32) public productsSold;\n    mapping(bytes32=>bytes32[]) public productsWithSeller;\n    mapping(bytes32=>bytes32[]) public productsWithConsumer;\n    mapping(bytes32=>bytes32[]) public sellersWithManufacturer;\n\n\n    //SELLER SECTION\n\n    function addSeller(bytes32 _manufacturerId, bytes32 _sellerName, bytes32 _sellerBrand, bytes32 _sellerCode, uint256 _sellerNum, bytes32 _sellerManager, bytes32 _sellerAddress) public {\n        sellers[sellerCount] = seller(sellerCount, _sellerName, _sellerBrand, _sellerCode,\n        _sellerNum, _sellerManager, _sellerAddress);\n        sellerCount++;\n        sellersWithManufacturer[_manufacturerId].push(_sellerCode);\n    }\n\n\n    function viewSellers () public view returns(uint256[] memory, bytes32[] memory, bytes32[] memory, bytes32[] memory, uint256[] memory, bytes32[] memory, bytes32[] memory) {\n        uint256[] memory ids = new uint256[](sellerCount);\n        bytes32[] memory snames = new bytes32[](sellerCount);\n        bytes32[] memory sbrands = new bytes32[](sellerCount);\n        bytes32[] memory scodes = new bytes32[](sellerCount);\n        uint256[] memory snums = new uint256[](sellerCount);\n        bytes32[] memory smanagers = new bytes32[](sellerCount);\n        bytes32[] memory saddress = new bytes32[](sellerCount);\n        \n        for(uint i=0; i<sellerCount; i++) {\n            ids[i] = sellers[i].sellerId;\n            snames[i] = sellers[i].sellerName;\n            sbrands[i] = sellers[i].sellerBrand;\n            scodes[i] = sellers[i].sellerCode;\n            snums[i] = sellers[i].sellerNum;\n            smanagers[i] = sellers[i].sellerManager;\n            saddress[i] = sellers[i].sellerAddress;\n        }\n        return(ids, snames, sbrands, scodes, snums, smanagers, saddress);\n    }\n\n    //PRODUCT SECTION\n\n    function addProduct(bytes32 _manufactuerID, bytes32 _productName, bytes32 _productSN, bytes32 _productBrand, uint256 _productPrice) public {\n        productItems[productCount] = productItem(productCount, _productSN, _productName, _productBrand,\n        _productPrice, \"Available\");\n        productMap[_productSN] = productCount;\n        productCount++;\n        productsManufactured[_productSN] = _manufactuerID;\n    }\n\n\n    function viewProductItems () public view returns(uint256[] memory, bytes32[] memory, bytes32[] memory, bytes32[] memory, uint256[] memory, bytes32[] memory) {\n        uint256[] memory pids = new uint256[](productCount);\n        bytes32[] memory pSNs = new bytes32[](productCount);\n        bytes32[] memory pnames = new bytes32[](productCount);\n        bytes32[] memory pbrands = new bytes32[](productCount);\n        uint256[] memory pprices = new uint256[](productCount);\n        bytes32[] memory pstatus = new bytes32[](productCount);\n        \n        for(uint i=0; i<productCount; i++) {\n            pids[i] = productItems[i].productId;\n            pSNs[i] = productItems[i].productSN;\n            pnames[i] = productItems[i].productName;\n            pbrands[i] = productItems[i].productBrand;\n            pprices[i] = productItems[i].productPrice;\n            pstatus[i] = productItems[i].productStatus;\n        }\n        return(pids, pSNs, pnames, pbrands, pprices, pstatus);\n    }\n\n    //SELL Product\n\n    function manufacturerSellProduct(bytes32 _productSN, bytes32 _sellerCode) public {\n        productsWithSeller[_sellerCode].push(_productSN);\n        productsForSale[_productSN] = _sellerCode;\n    }\n\n    function sellerSellProduct(bytes32 _productSN, bytes32 _consumerCode) public {   \n        bytes32 pStatus;\n        uint256 i;\n        uint256 j=0;\n\n        if(productCount>0) {\n            for(i=0;i<productCount;i++) {\n                if(productItems[i].productSN == _productSN) {\n                    j=i;\n                }\n            }\n        }\n\n        pStatus = productItems[j].productStatus;\n        if(pStatus == \"Available\") {\n            productItems[j].productStatus = \"NA\";\n            productsWithConsumer[_consumerCode].push(_productSN);\n            productsSold[_productSN] = _consumerCode;\n        }\n    }\n\n\n    function queryProductsList(bytes32 _sellerCode) public view returns(uint256[] memory, bytes32[] memory, bytes32[] memory, bytes32[] memory, uint256[] memory, bytes32[] memory) {\n        bytes32[] memory productSNs = productsWithSeller[_sellerCode];\n        uint256 k=0;\n\n        uint256[] memory pids = new uint256[](productCount);\n        bytes32[] memory pSNs = new bytes32[](productCount);\n        bytes32[] memory pnames = new bytes32[](productCount);\n        bytes32[] memory pbrands = new bytes32[](productCount);\n        uint256[] memory pprices = new uint256[](productCount);\n        bytes32[] memory pstatus = new bytes32[](productCount);\n\n        \n        for(uint i=0; i<productCount; i++) {\n            for(uint j=0; j<productSNs.length; j++) {\n                if(productItems[i].productSN==productSNs[j]) {\n                    pids[k] = productItems[i].productId;\n                    pSNs[k] = productItems[i].productSN;\n                    pnames[k] = productItems[i].productName;\n                    pbrands[k] = productItems[i].productBrand;\n                    pprices[k] = productItems[i].productPrice;\n                    pstatus[k] = productItems[i].productStatus;\n                    k++;\n                }\n            }\n        }\n        return(pids, pSNs, pnames, pbrands, pprices, pstatus);\n    }\n\n    function querySellersList (bytes32 _manufacturerCode) public view returns(uint256[] memory, bytes32[] memory, bytes32[] memory, bytes32[] memory, uint256[] memory, bytes32[] memory, bytes32[] memory) {\n        bytes32[] memory sellerCodes = sellersWithManufacturer[_manufacturerCode];\n        uint256 k=0;\n        uint256[] memory ids = new uint256[](sellerCount);\n        bytes32[] memory snames = new bytes32[](sellerCount);\n        bytes32[] memory sbrands = new bytes32[](sellerCount);\n        bytes32[] memory scodes = new bytes32[](sellerCount);\n        uint256[] memory snums = new uint256[](sellerCount);\n        bytes32[] memory smanagers = new bytes32[](sellerCount);\n        bytes32[] memory saddress = new bytes32[](sellerCount);\n        \n        for(uint i=0; i<sellerCount; i++) {\n            for(uint j=0; j<sellerCodes.length; j++) {\n                if(sellers[i].sellerCode==sellerCodes[j]) {\n                    ids[k] = sellers[i].sellerId;\n                    snames[k] = sellers[i].sellerName;\n                    sbrands[k] = sellers[i].sellerBrand;\n                    scodes[k] = sellers[i].sellerCode;\n                    snums[k] = sellers[i].sellerNum;\n                    smanagers[k] = sellers[i].sellerManager;\n                    saddress[k] = sellers[i].sellerAddress;\n                    k++;\n                    break;\n               }\n            }\n        }\n\n        return(ids, snames, sbrands, scodes, snums, smanagers, saddress);\n    }\n\n    function getPurchaseHistory(bytes32 _consumerCode) public view returns (bytes32[] memory, bytes32[] memory, bytes32[] memory) {\n        bytes32[] memory productSNs = productsWithConsumer[_consumerCode];\n        bytes32[] memory sellerCodes = new bytes32[](productSNs.length);\n        bytes32[] memory manufacturerCodes = new bytes32[](productSNs.length);\n        for(uint i=0; i<productSNs.length; i++) {\n            sellerCodes[i] = productsForSale[productSNs[i]];\n            manufacturerCodes[i] = productsManufactured[productSNs[i]];\n        }\n        return (productSNs, sellerCodes, manufacturerCodes);\n    }\n\n    // VERIFY Product\n\n    function verifyProduct(bytes32 _productSN, bytes32 _consumerCode) public view returns(bool) {\n        if(productsSold[_productSN] == _consumerCode) {\n            return true;\n        }\n        else {\n            return false;\n        }\n    }\n}",
  "sourcePath": "C:\\Users\\aayus\\Product-Counterfeit-Detection\\contracts\\Product.sol",
  "compiler": {
    "name": "solc",
    "version": "0.5.16+commit.9c3226ce.Emscripten.clang"
  },
  "schemaVersion": "3.4.16",
  "updatedAt": "2023-09-30T04:27:18.377Z",
  "networkType": "ethereum",
  "devdoc": {
    "methods": {}
  },
  "userdoc": {
    "methods": {}
  }
}